:020000040800F2
:10000000E00D0020D9010008330E0008670D00083C
:10001000310E000845020008A10F00080000000092
:10002000000000000000000000000000490100087E
:1000300047020008000000008D010008350E00088E
:10004000F3010008F3010008F3010008F3010008C0
:10005000F3010008F3010008F3010008F3010008B0
:10006000F3010008F3010008F3010008F3010008A0
:10007000F3010008F3010008F3010008F301000890
:10008000F3010008F3010008F3010008F301000880
:10009000F3010008F3010008F3010008F301000870
:1000A000F3010008F3010008F3010008F301000860
:1000B000F3010008B50E0008F3010008F301000881
:1000C000F3010008F3010008F3010008F301000840
:1000D000F3010008F3010008F3010008F301000830
:1000E000F3010008F3010008F3010008F301000820
:1000F000F3010008F3010008F3010008F301000810
:10010000F3010008F3010008F3010008F3010008FF
:10011000F3010008F3010008F3010008F3010008EF
:10012000F3010008F3010008F3010008F3010008DF
:10013000DFF810D000F074F800480047E10F000825
:10014000AFF30080E00D0020074B19680868B0E8A5
:10015000F00F80F30988BFF36F8F4FF0000080F33A
:1001600011884EF00D0E70473000002006480068E0
:10017000006880F3088862B661B6BFF34F8FBFF3A3
:100180006F8F00DF00BF00BF08ED00E0EFF30980D4
:10019000BFF36F8F0F4B1A6820E9F00F106008B59E
:1001A0004FF0B00080F31188BFF34F8FBFF36F8F14
:1001B00001F018F84FF0000080F31188BDE8084006
:1001C00019680868B0E8F00F80F30988BFF36F8FF3
:1001D000704700BF300000200648804706480047AF
:1001E000FEE7FEE7FEE7FEE7FEE7FEE7FEE7FEE7E7
:1001F000FEE7FEE7B10E000831010008D2B201E0CF
:1002000000F8012B491EFBD270470022F6E710B51B
:1002100013460A4604461946FFF7F0FF204610BD74
:10022000064C074D06E0E06840F0010394E8070043
:1002300098471034AC42F6D3FFF77EFF481300080E
:1002400068130008FEE770472DE9F84FDFF8C89102
:10025000002409F1040A0AF1040B23460F270BF1CD
:10026000040ED1E00125A54006EA0502AA4276D196
:10027000DFF8A8C14E68A6EB0C0866452BD00DDC54
:10028000032E34D005DC36B3012E19D0022E2FD127
:100290001BE0112E16D0122E2AD119E0B8F5881FB6
:1002A00019D006DCB8F5803F15D0B8F5801F1FD1F6
:1002B00011E0B8F5001F0ED0B8F5041F18D10AE000
:1002C000CB6815E0CB681B1D12E0CB6808330FE04C
:1002D000CB680C330CE08B682BB1012B4FF008037B
:1002E00003D0456104E0042302E0056100E000233F
:1002F000FF2A01D8064601E000F104064FEA840512
:1003000001D9A5F12005D6F8008007FA05FC28EAF6
:100310000C0803FA05F548EA0508C6F800804D68A0
:10032000ED0070D53E4DAE6946F00106AE61AD6997
:1003300024F0030605F0010500953A4D06EB050C87
:10034000DCF80850A607360F07FA06F825EA080574
:10035000DFF8D480404503D14FF0000825E052E09B
:10036000DFF8C880404502D14FF001081DE0DFF8FA
:10037000C080404502D14FF0020816E0DFF8B4809B
:10038000404502D14FF003080FE0DFF8AC80404554
:1003900002D14FF0040808E0DFF8A080404502D108
:1003A0004FF0050801E04FF0060808FA06F848EAA1
:1003B0000508CCF808804D68D9F80060ED034D467B
:1003C00001D5164300E096432E604D68DAF80060D0
:1003D000AD03554601D5164300E096432E604D68A7
:1003E000DBF80060ED025D4601D5164300E0964360
:1003F0002E604D68DEF80060AD02754601D51643EB
:1004000000E096432E60641C0A681646E2407FF4C2
:1004100029AFBDE8F88F0000000401400000111072
:10042000001002400000014000080140000C0140A3
:10043000001001400014014000180140001C014060
:10044000C26821EA02030A4043EA0241016170479F
:100450000AB1016170470904FBE7000001488068A8
:10046000704700001C000020024881680278114497
:10047000816070471C000020074810B5016841F0FA
:1004800010010160032000F095F80F2000F006F83D
:1004900000F03EF8002010BD0020024000B50146EB
:1004A00087B000221D2000F065F81D2000F054F8F0
:1004B0001348C16941F00201C161C06905A900F09A
:1004C00002000690684600F01DF900F03BF90D4966
:1004D0004000B0FBF1F10D480B4A491E026041603B
:1004E00040F2E7320021C0E90321816000F002FB05
:1004F00010B1012007B000BD044800F029FBF9E766
:100500000010024040420F0000040040F4060020AA
:100510000F4808B5816941F001018161816901F0ED
:1005200001010091C16941F08051C161C06900229F
:1005300000F0805000900F21901E00F01BF805483D
:10054000416821F0E06141F00071416008BD0000A8
:100550000010024000000140002809DB00F01F02EB
:10056000012191404009800000F1E020C0F8001115
:1005700070470000F0B40E4B1B680C46C3F3022317
:10058000C3F10705042D00D90425191D072901D23F
:10059000002300E0DB1E012606FA05F1491E21407A
:1005A00099409E40761E16403143F0BC00F0F9BCE5
:1005B0000CED00E0064900F0070208684FF6FF0363
:1005C000184040EA0220034A1043086070470000C8
:1005D0000CED00E00000FA052DE9F0470F4605009C
:1005E00061D0434E306800F00700B84209D230684D
:1005F00020F0070038433060306800F00700B84250
:1006000051D128683B4C810712D5400703D560685B
:1006100040F4E06060602878000703D5606840F42B
:10062000605060606068A96820F0F0000843606076
:100630002878C00728D06868012810D021680228CF
:1006400010D0890700292EDA616821F003010143E7
:100650006160FFF703FF804641F288390DE02168B1
:100660008903EFE78901EDE7FFF7F8FEA0EB08014A
:10067000494502D90320BDE8F0876068696800F049
:100680000C00B0EB810FEFD1306800F00700B842EA
:100690000BD9306820F0070038433060306800F034
:1006A0000700B84201D00120E5E72878400705D5CA
:1006B0006068E96820F4E06008436060287800071B
:1006C00006D56068296920F4605040EAC100606086
:1006D00000F048F86168084AC1F30311515CC84052
:1006E0000649086006480068FFF7D8FE0020C2E708
:1006F00000200240001002403013000828000020B3
:10070000200000200F2202600C4A536803F003030C
:100710004360536803F0F0038360536803F4E063BD
:10072000C36052684FF4E06303EAD20202610448F6
:10073000006800F0070008607047000000100240E9
:10074000002002400448054900684968044AC1F392
:100750000221515CC8407047280000200010024070
:100760004013000812A185B00FC98DE80F0014A036
:10077000144A006804905168134801F00C03042BDC
:1007800010D0082B0ED1C1F38343C9031DF8030019
:100790000AD5516804AAC1F34041515C0A4A50434A
:1007A000B0FBF1F005B0704708494843FAE7000094
:1007B00002030405060708090A0B0C0D0E0F1010A2
:1007C000010200000010024000127A0000093D0002
:1007D0002DE9F84F040070D02078C04DC00749D0F3
:1007E0006868C0F38100012807D06868C0F3810001
:1007F000022809D16868C00306D52868800339D566
:1008000060680028E7D035E06068B0F5803F0BD025
:1008100010B1B0F5A02F11D0286820F480302860E6
:10082000286820F4802002E0286840F480302860A6
:10083000606890B1FFF712FE06460AE0286840F4AF
:1008400080202860F0E700BFFFF708FE801B6428C7
:1008500073D828688003F7D50CE0FFF7FFFD064644
:1008600005E000BFFFF7FAFD801B6428F0D8286878
:100870008003F7D420789A4E80074FF001094FF09B
:10088000000839D5686810F00C0F07D06868C0F30D
:100890008100022809D16868C00306D4286880074F
:1008A00014D52069012808D110E02069B0B1C6F83C
:1008B0000090FFF7D3FD074605E00AE1FFF7CEFD04
:1008C000C01B0228C4D828688007F7D5286861694A
:1008D00020F0F80040EAC10028600DE0C6F8008072
:1008E000FFF7BCFD074604E0FFF7B8FDC01B022878
:1008F00023D828688007F7D4207800072CD57948BA
:10090000A169D9B1C0F80090FFF7A8FD074604E03F
:10091000FFF7A4FDC01B02280FD8686A8007F7D52F
:1009200071484FF4FA510068B0FBF1F0009000BF3D
:100930000098411E0091FAD20EE080E0C0F80080DD
:10094000FFF78CFD074604E0FFF788FDC01B022877
:1009500075D8686A8007F7D42078400760D5E869C1
:100960000027C00008D4E86940F08050E861E869D9
:10097000012700F0805000905C480168C90513D43D
:100980000168834641F480710160FFF767FD82468C
:1009900006E000BFFFF762FDA0EB0A0064284ED816
:1009A000DBF80000C005F5D5E06801280AD008B1E1
:1009B000052813D0286A20F001002862286A20F058
:1009C000040002E0286A40F001002862E06841F279
:1009D000883B98B1FFF742FD82460BE0286A40F061
:1009E00004002862EEE700BFFFF738FDA0EB0A0124
:1009F00059455AD8286A8007F6D50CE0FFF72EFD36
:100A0000824605E0FFF72AFDA0EB0A0159454CD8C4
:100A1000286A8007F6D41FB1E86920F08050E861A9
:100A2000E06988B36968C1F38101022944D00228D2
:100A3000C6F8608004D0FFF711FD044638E034E0CA
:100A4000FFF70CFD074604E0FFF708FDC01B022876
:100A50002BD828688001F7D4206AB0F5803F05D1F3
:100A60006868A16820F4003008436860D4E9080190
:100A70000843696821F4741108436860C6F86090FF
:100A8000FFF7ECFC044606E025E000BFFFF7E6FCBC
:100A9000001B022809D828688001F7D51BE000BF99
:100AA000FFF7DCFC001B022802D90320BDE8F88F09
:100AB00028688001F4D40EE00128F7D06868226A23
:100AC00000F48031914204D1616A00F470108842D0
:100AD00001D00120EAE70020E8E700000010024012
:100AE0000000424280044242280000200070004082
:100AF0007047704710B5040003D094F83D0010B162
:100B000007E0012010BD002084F83C00204600F0E2
:100B10001EF8022084F83D00211D206800F0D0F965
:100B2000012084F8460084F83E0084F83F0084F8F1
:100B3000400084F8410084F8420084F8430084F8BF
:100B4000440084F8450084F83D00002010BD704743
:100B500090F83D10012901D001207047022180F852
:100B60003D100168CA6842F00102CA6000680E497F
:100B700088420ED00D4988420BD0B0F1804F08D08A
:100B80000B49884205D00B49884202D00A49884265
:100B900004D1816801F00701062903D0016841F002
:100BA0000101016000207047002C01400034014029
:100BB0000004004000080040000C0040704770B581
:100BC0000446006801694FF00005C943890715D440
:100BD000C168C943890711D4E91E0161012020774A
:100BE000206880698007204602D0FFF7E7FF04E015
:100BF00000F098F8204600F096F825772068016903
:100C0000C943490717D4C168C943490713D46FF0D2
:100C100004010161022020772068806910F4407F80
:100C2000204602D0FFF7CAFF04E000F07BF8204620
:100C300000F079F8257720680169C943090716D4BF
:100C4000C168C943090712D46FF00801016104208B
:100C500020772068C0698007204602D0FFF7AEFFEA
:100C600004E000F05FF8204600F05DF8257720688A
:100C70000169C943C90617D4C168C943C90613D459
:100C80006FF010010161082020772068C06910F41E
:100C9000407F204602D0FFF791FF04E000F042F8C9
:100CA000204600F040F8257720680169C943C9074C
:100CB00008D1C168C943C90704D1891E0161204612
:100CC00000F032F820680169C943090609D4C168F7
:100CD000C943090605D46FF0800101612046FFF782
:100CE00007FF20680169C943490609D4C168C9439F
:100CF000490605D46FF040010161204600F032F84A
:100D000020680169C94389060BD4C168C9438906B3
:100D100007D46FF0200101612046BDE87040FFF765
:100D2000E8BE70BD7047704710B500680A49884238
:100D300011D10A4C2088401C80B22080B0F57A7F07
:100D400005D120210648FFF77BFB00202080BDE86D
:100D50001040FFF789BB10BD0004004000000020D8
:100D6000000801407047FEE72DE9F04385B0002000
:100D700000900190029003902948816941F0400160
:100D80008161816901F040010491816941F01001A4
:100D90008161816901F010010491816941F00401D0
:100DA0008161816901F004010491816941F00801C8
:100DB000816180691B4F00F008000490002220210F
:100DC0003846FFF745FBDFF86080002230214046BF
:100DD000FFF73EFBDFF85490002220214846FFF742
:100DE00037FB2026012502240096CDE901546946EF
:100DF00038460394FFF728FA30200090CDE90154DB
:100E0000694640460394FFF71FFA0096CDE9015466
:100E1000694648460394FFF717FA05B0BDE8F0832A
:100E2000001002400018014000080140000C014081
:100E3000FEE7704710B5B02080F31188BFF34F8FE5
:100E4000BFF36F8F00F04AFA18B104494FF0805099
:100E50000860002080F3118810BD000004ED00E060
:100E600030B58FB028216846FFF7CFF914210AA8C2
:100E7000FFF7CBF901210804CDE90010002402940A
:100E800002250491CDE907504FF4E010099068461F
:100E9000FFF79EFC0F20CDE90A0580200C90C000D2
:100EA000CDE90D0402210AA8FFF796FB0FB030BD73
:100EB000704700000148FFF782BE0000F4060020E2
:100EC000F0B502681C4B1D4D1D4E1E4F1E4C4FF0C1
:100ED000804C984209D0A04207D0604505D0A84276
:100EE00003D0B04201D0B84204D122F0700E4A685B
:100EF00042EA0E02984209D0A04207D0604505D0D0
:100F0000A84203D0B04201D0B84203D122F44075C8
:100F1000CA682A434D6922F080022A4302608A6827
:100F2000C2620A688262984201D0A04201D1096976
:100F3000016301214161F0BD002C0140000400402B
:100F400000080040000C004000340140054C4FF404
:100F5000FA7520212046FFF773FA284600F010F9B1
:100F6000F7E70000000C0140054C4FF416752021F6
:100F70002046FFF765FA284600F002F9F7E700007F
:100F800000180140054C4FF42F7510212046FFF743
:100F900057FA284600F0F4F8F7E70000000801408F
:100FA000FEE70907090E002804DB00F1E02080F8C5
:100FB0000014704700F00F0000F1E02080F8141DCD
:100FC000704702E008C8121F08C1002AFAD1704712
:100FD0007047002001E001C1121F002AFBD17047B9
:100FE0000EB5FFF749FAFFF73BFFFFF7BDFE164CC2
:100FF000144A00236068A2F500718DE80700802282
:1010000012A1144800F030F9134A2061A068A2F53B
:1010100000718DE807000023802210A1114800F024
:1010200023F9114A6061E068A2F500718DE80700BC
:10103000002380220DA10F4800F016F9A06100F0F6
:10104000B7F8FEE740020020000000205461736BF7
:10105000310000004D0F00087C0400205461736BC8
:1010600032000000690F0008B80600205461736B5D
:1010700033000000850F000870B5054600F068F8E1
:10108000114CA068401CA0602068B0B1806BA96BB7
:10109000884200D82560A96B01206268884010430F
:1010A000606001EB8100094901EB8000291D00F01F
:1010B00043F8BDE8704000F059B82560A0680128E9
:1010C000E9D100F007F8E6E7300000203C070020F7
:1010D000FEE7000070B5064D002400BF04EB84005D
:1010E00005EB800000F01AF8641C052CF6D370BDE7
:1010F0003C070020FEE7000010B5031F4FF080748E
:101100001C601B1F21F001011960191F024B0B60AD
:10111000143940380A6010BDF510000800F10801CC
:101120004FF0FF32C0E90112C1600161002101608E
:10113000704700210161704742684A6093688B6084
:1011400093685960916008610168491C01607047AB
:10115000B02080F31188BFF34F8FBFF36F8F024829
:101160000168491C016070472C0000200349086891
:10117000401E086001D180F3118870472C000020C8
:1011800009490A68506392F83820012090404A6863
:1011900082434A6005494FF080500860BFF34F8F8B
:1011A000BFF36F8F704700003000002004ED00E0B7
:1011B0000EB5084A002002F13C018DE80700034605
:1011C000802205A1064800F04FF8BDE80E4000F06F
:1011D00025B80000A007002049444C45000000004D
:1011E000D11000080B4A50680B49B0FA80F0C0F1EA
:1011F0001F0000EB800001EB800000F10803416854
:1012000049684160994201D149684160C8681060ED
:1012100070470000300000203C0700200F4810B548
:10122000016841F4702101600D484FF47A71006843
:10123000B0FBF1F0401EB0F1807F0ED24FF0E02104
:101240004861084AF02082F8140D002088610720C8
:101250000861FEF78BFF002010BDFEE720ED00E0E7
:10126000280000200FE000E02DE9F8430646DDE904
:101270000904089D4FF0000C54B348B3B0461E4615
:101280006FF0030303EB8202A061104420F0070912
:101290006F46002022180B5C13770A5C12B1401CC9
:1012A0001828F7D384F833C0201DFFF742FF2461CC
:1012B000052D00D30425324641464846A563FFF775
:1012C0001BFF206007B100942046FFF7D5FE01E028
:1012D000CDF800C00098BDE8F883000070B5124B4F
:1012E00000210846DA68521CDA60104D5FF00106F2
:1012F00001EB810255F8224084B105EB8202D268ED
:10130000D468626B12B1521E626307D194F8382020
:1013100006FA02F05A68104358600120491CC9B20D
:101320000529E5D370BD0000300000203C070020F7
:101330000000000000000000010203040607080985
:1013400000000000010203046813000800000020F0
:1013500040000000C20F0008A81300084000002051
:10136000A00D0000D20F00080000000003000000E4
:10137000020000000100000000000000000000006A
:10138000000000000100000010000000000000004C
:101390000024F400AAAAAAAA00000000000000008D
:0813A000000000000000000045
:0400000508000131BD
:00000001FF
