:020000040800F2
:10000000B0090020D901000883100008DB0F0008A8
:1000100081100008450200082D13000800000000B0
:10002000000000000000000000000000690100085E
:1000300047020008000000008D010008851000083C
:10004000F3010008F3010008F3010008F3010008C0
:10005000F3010008F3010008F3010008F3010008B0
:10006000F3010008F3010008F3010008F3010008A0
:10007000F3010008F3010008F3010008F301000890
:10008000F3010008F3010008F3010008F301000880
:10009000F3010008F3010008F3010008F301000870
:1000A000F3010008F3010008F3010008F301000860
:1000B000F3010008F3010008F3010008F301000850
:1000C000F3010008F3010008F3010008F301000840
:1000D000F301000821130008F3010008F3010008F0
:1000E000F3010008F3010008F3010008F301000820
:1000F000F3010008F3010008F3010008F301000810
:10010000F3010008F3010008F3010008F3010008FF
:10011000F3010008F3010008F3010008F3010008EF
:10012000F3010008F3010008F3010008F3010008DF
:10013000DFF810D000F074F80048004705140008FC
:10014000AFF30080B009002006480068006880F323
:10015000088862B661B6BFF34F8FBFF36F8F00DFC1
:1001600000BF00BF08ED00E0074B19680868B0E861
:10017000F00F80F30988BFF36F8F4FF0000080F31A
:1001800011884EF00D0E704718000020EFF3098023
:10019000BFF36F8F0F4B1A6820E9F00F106008B59E
:1001A0004FF0B00080F31188BFF34F8FBFF36F8F14
:1001B00001F0FCF94FF0000080F31188BDE8084021
:1001C00019680868B0E8F00F80F30988BFF36F8FF3
:1001D000704700BF180000200648804706480047C7
:1001E000FEE7FEE7FEE7FEE7FEE7FEE7FEE7FEE7E7
:1001F000FEE7FEE7D710000831010008D2B201E0A7
:1002000000F8012B491EFBD270470022F6E710B51B
:1002100013460A4604461946FFF7F0FF204610BD74
:10022000064C074D06E0E06840F0010394E8070043
:1002300098471034AC42F6D3FFF77EFF64160008EF
:1002400084160008FEE7704710B590F821100022D0
:10025000022905D00421816380F82020012010BDEF
:1002600001680B6823F00E030B6001680B6823F034
:1002700001030B6090F84030C46B012101FA03F3D5
:10028000636080F8211080F82020104610BD000027
:100290002DE9F05F90F821100024022903D00421F9
:1002A0008163012485E001680A6822F00E020A6079
:1002B00001680A6822F001020A603F4E3E4FB21503
:1002C000DFF8F4C0DFF8F090DFF8ECA0DFF8E8B07A
:1002D000DFF8E4E00168783F13011502ACF1640C2B
:1002E000A9F15009AAF13C0AABF1280BAEF1140EAA
:1002F0004FF48018B14227D9B9420ED0614512D0CF
:1003000049451DD0514518D0594518D0714501D1E6
:10031000424615E0294EB14201D1012210E0274E9C
:100320001436B14201D110220AE0244E2836B142DF
:1003300006D0224A3C32914201D11A4600E02A46B8
:100340001E49091F0A602BE0B94213D0614517D03E
:10035000494522D051451DD059451DD0714501D187
:1003600042461AE0B14202D14FF0807215E0134EBE
:10037000B14201D1012210E0104E1436B14201D138
:1003800010220AE00D4E2836B14206D00B4A3C320C
:10039000914201D11A4600E02A46074980394A6055
:1003A000012180F82110002180F82010416B01B15B
:1003B00088472046BDE8F09F8000024008040240C4
:1003C00080B200F0F3BF00002DE9F84FDFF8C891CC
:1003D000002409F1040A0AF1040B23460F270BF14C
:1003E000040ED1E00125A54006EA0502AA4276D115
:1003F000DFF8A8C14E68A6EB0C0866452BD00DDCD3
:10040000032E34D005DC36B3012E19D0022E2FD1A5
:100410001BE0112E16D0122E2AD119E0B8F5881F34
:1004200019D006DCB8F5803F15D0B8F5801F1FD174
:1004300011E0B8F5001F0ED0B8F5041F18D10AE07E
:10044000CB6815E0CB681B1D12E0CB6808330FE0CA
:10045000CB680C330CE08B682BB1012B4FF00803F9
:1004600003D0456104E0042302E0056100E00023BD
:10047000FF2A01D8064601E000F104064FEA840590
:1004800001D9A5F12005D6F8008007FA05FC28EA75
:100490000C0803FA05F548EA0508C6F800804D681F
:1004A000ED0070D53E4DAE6946F00106AE61AD6916
:1004B00024F0030605F0010500953A4D06EB050C06
:1004C000DCF80850A607360F07FA06F825EA0805F3
:1004D000DFF8D480404503D14FF0000825E052E01A
:1004E000DFF8C880404502D14FF001081DE0DFF879
:1004F000C080404502D14FF0020816E0DFF8B4801A
:10050000404502D14FF003080FE0DFF8AC804045D2
:1005100002D14FF0040808E0DFF8A080404502D186
:100520004FF0050801E04FF0060808FA06F848EA1F
:100530000508CCF808804D68D9F80060ED034D46F9
:1005400001D5164300E096432E604D68DAF800604E
:10055000AD03554601D5164300E096432E604D6825
:10056000DBF80060ED025D4601D5164300E09643DE
:100570002E604D68DEF80060AD02754601D5164369
:1005800000E096432E60641C0A681646E2407FF441
:1005900029AFBDE8F88F00000004014000001110F1
:1005A000001002400000014000080140000C014022
:1005B000001001400014014000180140001C0140DF
:1005C000C26821EA02030A4043EA0241016170471E
:1005D0000AB1016170470904FBE700000148806827
:1005E000704700000800002002488168027811442A
:1005F0008160704708000020074810B5016841F08D
:1006000010010160032000F07BF80F2000F006F8D5
:1006100000F024F8002010BD0020024070B50D4D00
:1006200004464FF47A712878B1FBF0F00A49096862
:10063000B1FBF0F000F0F2FA48B9102C07D200221A
:100640002146501E00F03CF800206C6070BD012077
:1006500070BD000008000020140000200F4808B5FD
:10066000816941F001018161816901F0010100911D
:10067000C16941F08051C161C069002200F0805021
:1006800000900F21901E00F01BF80548416821F0F2
:10069000E06141F00071416008BD000000100240BF
:1006A00000000140002809DB00F01F0201219140F9
:1006B0004009800000F1E020C0F800117047000000
:1006C000F0B40E4B1B680C46C3F30223C3F10705BD
:1006D000042D00D90425191D072901D2002300E0AB
:1006E000DB1E012606FA05F1491E214099409E4075
:1006F000761E16403143F0BC00F022BE0CED00E047
:10070000064900F0070208684FF6FF03184040EA68
:100710000220034A10430860704700000CED00E01F
:100720000000FA052DE9F0470F46050061D0434E61
:10073000306800F00700B84209D2306820F00700A6
:1007400038433060306800F00700B84251D1286863
:100750003B4C810712D5400703D5606840F4E06048
:1007600060602878000703D5606840F460506060DE
:100770006068A96820F0F000084360602878C0072E
:1007800028D06868012810D02168022810D0890775
:1007900000292EDA616821F0030101436160FFF74F
:1007A0001DFF804641F288390DE021688903EFE79B
:1007B0008901EDE7FFF712FFA0EB0801494502D9D7
:1007C0000320BDE8F0876068696800F00C00B0EBBA
:1007D000810FEFD1306800F00700B8420BD93068C4
:1007E00020F0070038433060306800F00700B8425E
:1007F00001D00120E5E72878400705D56068E96861
:1008000020F4E060084360602878000706D560683F
:10081000296920F4605040EAC100606000F038F8B7
:100820006168084AC1F30311515CC8400649086079
:1008300006480068FFF7F2FE0020C2E700200240F1
:10084000001002404C160008140000200C0000208C
:100850000448054900684968044AC1F30221515C13
:10086000C840704714000020001002405C160008C9
:100870000448054900684968044AC1F3C221515C33
:10088000C840704714000020001002405C160008A9
:1008900012A185B00FC98DE80F0014A0144A00689A
:1008A00004905168134801F00C03042B10D0082B5E
:1008B0000ED1C1F38343C9031DF803000AD5516863
:1008C00004AAC1F34041515C0A4A5043B0FBF1F025
:1008D00005B0704708494843FAE7000002030405E1
:1008E000060708090A0B0C0D0E0F1010010200007C
:1008F0000010024000127A0000093D002DE9F84F77
:10090000040070D02078C04DC00749D06868C0F39B
:100910008100012807D06868C0F38100022809D14E
:100920006868C00306D52868800339D56068002848
:10093000E7D035E06068B0F5803F0BD010B1B0F57E
:10094000A02F11D0286820F480302860286820F477
:10095000802002E0286840F480302860606890B110
:10096000FFF73CFE06460AE0286840F48020286035
:10097000F0E700BFFFF732FE801B642873D82868B9
:100980008003F7D50CE0FFF729FE064605E000BF1F
:10099000FFF724FE801B6428F0D828688003F7D472
:1009A00020789A4E80074FF001094FF0000839D5A2
:1009B000686810F00C0F07D06868C0F38100022847
:1009C00009D16868C00306D42868800714D5206957
:1009D000012808D110E02069B0B1C6F80090FFF7F7
:1009E000FDFD074605E00AE1FFF7F8FDC01B022800
:1009F000C4D828688007F7D52868616920F0F80016
:100A000040EAC10028600DE0C6F80080FFF7E6FD6F
:100A1000074604E0FFF7E2FDC01B022823D8286840
:100A20008007F7D4207800072CD57948A169D9B17F
:100A3000C0F80090FFF7D2FD074604E0FFF7CEFDB7
:100A4000C01B02280FD8686A8007F7D571484FF499
:100A5000FA510068B0FBF1F0009000BF0098411E11
:100A60000091FAD20EE080E0C0F80080FFF7B6FDFA
:100A7000074604E0FFF7B2FDC01B022875D8686A7C
:100A80008007F7D42078400760D5E8690027C000C8
:100A900008D4E86940F08050E861E869012700F077
:100AA000805000905C480168C90513D401688346F2
:100AB00041F480710160FFF791FD824606E000BFBE
:100AC000FFF78CFDA0EB0A0064284ED8DBF800008D
:100AD000C005F5D5E06801280AD008B1052813D073
:100AE000286A20F001002862286A20F0040002E051
:100AF000286A40F001002862E06841F2883B98B122
:100B0000FFF76CFD82460BE0286A40F00400286283
:100B1000EEE700BFFFF762FDA0EB0A0159455AD886
:100B2000286A8007F6D50CE0FFF758FD824605E0FD
:100B3000FFF754FDA0EB0A0159454CD8286A8007FD
:100B4000F6D41FB1E86920F08050E861E06988B30D
:100B50006968C1F38101022944D00228C6F8608087
:100B600004D0FFF73BFD044638E034E0FFF736FDE4
:100B7000074604E0FFF732FDC01B02282BD8286887
:100B80008001F7D4206AB0F5803F05D16868A1687C
:100B900020F4003008436860D4E90801084369681C
:100BA00021F4741108436860C6F86090FFF716FDE1
:100BB000044606E025E000BFFFF710FD001B0228F9
:100BC00009D828688001F7D51BE000BFFFF706FDB4
:100BD000001B022802D90320BDE8F88F2868800195
:100BE000F4D40EE00128F7D06868226A00F480315E
:100BF000914204D1616A00F47010884201D0012052
:100C0000EAE70020E8E7000000100240000042424E
:100C100080044242140000200070004010B5401EC5
:100C2000B0F1807F01D3012010BD4FF0E02460615E
:100C30000F21601700F084FB0020A06107202061D5
:100C4000002010BD70477047F8B502680446106870
:100C5000D168536910F00F0F4FF0000553D003F027
:100C6000010601F4907737435FD0C20705D0CA056B
:100C700003D5226C42F001022264420705D5DA074F
:100C800003D0226C42F002022264820705D5DA0703
:100C900003D0226C42F004022264020707D501F05F
:100CA0002002324303D0226C42F008022264226CFC
:100CB000002A34D0800604D5880602D5204600F0EC
:100CC0005BFA20684069216CC0F38010090700D4EA
:100CD00030B3204600F038FA2068416949061BD538
:100CE000416921F040014161A06BA8B158494163BD
:100CF000A06BFFF7CDFA002811D0A06B416B01B0BB
:100D0000BDE8F040084783060FD58B060DD5204679
:100D1000BDE8F84000F030BA2046FFF794FFF8BD78
:100D20002046FFF790FF2564F8BD266B2023012E97
:100D300052D1C60650D5CE064ED5106850680090E8
:100D4000506940062AD5A16B086840680004000C71
:100D5000EAD0A68D8642E7D9E0858869202818D098
:100D6000D06820F48070D0602068416921F00101D2
:100D700041612068416921F04001416184F83E30C1
:100D800025632068C16821F01001C160A06BFFF7E6
:100D90005BFAA08DE18D401A81B219E0A08DE18D42
:100DA000401A81B2E08D0028BED00029BCD0D068A6
:100DB00020F49070D0602068426922F00102426104
:100DC00084F83E3025632068C26822F01002C260B9
:100DD0002046FFF737FFF8BD05062BD50D0629D5B0
:100DE00094F83D002128F6D1A068B0F5805F01D1CC
:100DF0002069B0B1206A411C2162216800784860F6
:100E0000E08C401E0004000CE084E4D12068C1683E
:100E100021F08001C1602068C16841F04001C160DB
:100E2000F8BD206A0088C0F308005060206A801C6A
:100E30002062E5E74006F3D54806F1D5D1682046A3
:100E400021F04001D16084F83D3000F0C5F8F8BDD4
:100E50003911000870B5040004D094F83D00002555
:100E600010B106E0012070BD84F83C50204600F02F
:100E700023F8242084F83D002068C16821F4005143
:100E8000C160204600F0D4F92068016921F4904146
:100E900001612068416921F02A0141612068C1682F
:100EA00041F40051C1602564202084F83D0084F89D
:100EB0003E00002070BD000010B500681E4986B0DD
:100EC000884236D11D48816941F004018161816900
:100ED00001F004010491816941F00401816181699B
:100EE00001F004010491816941F4804181618069CC
:100EF000134C00F4804004904FF4007000900220E6
:100F00000190012002900320039069462046FFF7DC
:100F10005BFA201500900020019069462046FFF7FB
:100F200053FA2520FFF7BEFB032211462520FFF7C9
:100F3000C7FB06B010BD00000038014000100240A1
:100F40000008014090F83E30202B0ED159B152B12B
:100F500090F83C30012B08D0012380F83C3000236E
:100F6000036300F0C1B90120704702207047000000
:100F700030B400681549884225D1154841880A04D3
:100F800016D402464C0412784FF0000304D50A2A06
:100F90000DD141F4004114E00D2A10D0C1F30D042D
:100FA0000C4D491C89B22A554180C72900D943807C
:100FB0000848012230BC0649C830FFF7C3BF41F4DE
:100FC00080414180F4E730BC7047000000380140A8
:100FD0001C000020A40400207047FEE72DE9F0412A
:100FE00086B0002000900190029003902148816912
:100FF00041F040018161816901F040010491816902
:1010000041F010018161816901F010010491816951
:1010100041F004018161816901F004010491816959
:1010200041F0080181618069134F00F008000490CD
:10103000012220213846FFF7CBFADFF84080012259
:1010400020214046FFF7C4FA2025012602240095FE
:10105000CDE90164694638460394FFF7B5F9009578
:10106000CDE90164694640460394FFF7ADF906B047
:10107000BDE8F0810010024000180140000C014062
:10108000FEE77047FFF7B0BA30B58FB02821684649
:10109000FFF7BBF814210AA8FFF7B7F801210804ED
:1010A000CDE900100024029402250491CDE90750F7
:1010B0004FF4E01009906846FFF720FC0F20CDE9BF
:1010C0000A056802CDE90C4002210AA80E94FFF738
:1010D00029FB0FB030BD7047094E0A4D4FF4FA7727
:1010E0004FF0805420213046FFF76AFA3846FFF768
:1010F00067F92C60BFF34F8FBFF36F8FF2E70000EB
:101100000018014004ED00E0094E0A4D4FF47A77D3
:101110004FF0805420213046FFF752FA3846FFF74F
:101120004FF92C60BFF34F8FBFF36F8FF2E70000D2
:10113000000C014004ED00E010B5406A0021C185BB
:10114000C184FFF780FD10BD0168CA6822F4907267
:10115000CA6001684A6922F001024A61016B0129F3
:1011600004D10168CA6822F01002CA60202180F808
:101170003E1000210163704708B590F83E10222907
:1011800001D0022008BD82684FF480539A4201D1F9
:10119000016921B1816A9A421BD04AB10AE0026812
:1011A000816A5268C2F308020A80816A891C08E0D9
:1011B000026972B10268526802F07F020A70816AA5
:1011C000491C8162C18D491E0904090CC18503D0E7
:1011D00019E002685268F1E70168CA6822F020024B
:1011E000CA600168CA6822F48072CA6001684A69EC
:1011F00022F001024A61202180F83E10016B012992
:1012000003D0FFF7B5FE002008BD0021016301688F
:10121000CA6822F01002CA6001680A68D20602D5C4
:101220000A6849680091818DFFF70CFDEBE700002B
:1012300070B5044600680169E26821F44051114329
:1012400001612169A0680843616908432168CA688F
:1012500041F20C639A430243CA6020684169A26963
:1012600021F44071114341611E492068884202D136
:10127000FFF7FEFA01E0FFF7EBFA00EBC00101EB2C
:101280000012606864218000B2FBF0F3B3FBF1F35D
:101290006FF018067343B2FBF0F5B2FBF0F605EB06
:1012A0008305322303EB0515B5FBF1F5B6FBF1F62B
:1012B00005F0F00505EB0615B2FBF0F6B2FBF0F019
:1012C000B0FBF1F06FF01802504306EB800003EB27
:1012D0000010B0FBF1F0216800F00F002844886096
:1012E00070BD00000038014081628285C285002106
:1012F0000164222280F83E2080F83C100168CA6810
:1013000042F48072CA6001684A6942F001024A618F
:101310000068C16841F02001C160002070470000F2
:101320000148FFF791BC00006C050020FEE70000BB
:10133000014A024900F023B8ED1300082000002004
:101340000907090E002804DB00F1E02080F80014F2
:10135000704700F00F0000F1E02080F8141D704786
:1013600002E008C8121F08C1002AFAD1704770476E
:10137000002001E001C1121F002AFBD170472DE9B6
:10138000F04116460F460446002503E03946B047B3
:10139000641C6D1C20780028F8D12846BDE8F08137
:1013A0000149086070470000240000204FF47A7162
:1013B000484300F001B8000070B54FF0E02400226F
:1013C00065690949A36909684843A1699942FCD044
:1013D00002D2A3EB010302E0A5EB010633441A4459
:1013E0000B468242F1D370BD2400002004490A68F4
:1013F0005206FCD5024AC1B2121D116070470000AE
:10140000003801401CB5FFF7F7F8FFF73DFEFFF786
:10141000E5FD4820FFF7C4FF4FF4E13000F086F807
:1014200017A0FFF785FF00F067F81B4C0023A4F519
:101430000070CDE90004802218A11A4800F0D4F809
:10144000194E04F50D750023306004F13400CDE928
:101450000005802215A1174800F0C6F8706016A09C
:10146000FFF766FF211D1A4800F08AF8291D184869
:1014700000F086F817A0FFF75BFF00F08DF8FEE79D
:10148000696E697420757361727420737563636526
:1014900073730D0A00000000280200205461736B72
:1014A00031000000D9100008000000205461736B67
:1014B00032000000091100086372656174652074D0
:1014C00061736B20737563636573730D0A000000AD
:1014D000900400207375636365737320746F2069D3
:1014E0006E73657274207461736B20746F206C6905
:1014F00073740D0A00000000014800F033B80000CA
:1015000090040020FEE7000010B5031F4FF0807428
:101510001C601B1F21F001011960191F024B0B6099
:10152000143940380A6010BD051500080B4910B584
:10153000094AC1E9002000208860C860086188610C
:101540000C2048610846FFF785FCBDE810400122E9
:1015500003490248FFF7F6BC003801406C05002043
:101560001C00002000F108014FF0FF32C0E9011219
:10157000C160016100210160704700210161704775
:1015800042684A6093688B60936859609160086113
:101590000168491C0160704703490248086000F077
:1015A00013B8000028020020180000200348044956
:1015B00002688A4200D10349016070471800002088
:1015C000280200205C040020064810B5016841F4A0
:1015D00070210160016841F070610160FEF7B4FDA7
:1015E000002010BD20ED00E02DE9F8434FF0000C85
:1015F000DDE908742CB327B306466FF0030000EB57
:1016000082003844A76120F007071D46E846002005
:1016100023180A5C1A770A5C12B1401C1828F7D309
:1016200084F833C0201DFFF7A8FF24612A46314605
:101630003846FFF769FF2060B8F1000F03D000942F
:1016400001E0CDF800C00098BDE8F883000000007C
:101650000000000001020304060708090000000062
:101660000102030484160008000000202800000086
:1016700060130008AC16000828000020880900004C
:1016800070130008000000000000000001000000CE
:1016900010000000000000000024F4000000000022
:0C16A0000000000000000000000000003E
:0400000508000131BD
:00000001FF
